:100000000C944B0C0C947C0C0C947C0C0C947C0C81
:100010000C947C0C0C947C0C0C947C0C0C947C0C40
:100020000C947C0C0C947C0C0C947C0C0C947C0C30
:100030000C947C0C0C947C0C0C947C0C0C947C0C20
:100040000C947C0C0C94F7780C947C0C0C947C0C29
:100050000C947C0C0C947C0C0C9407770C94997584
:100060000C947C0C0C94927F0C947C0C0C947C0C67
:100070000C947C0C0C947C0C0C947C0C0C947C0CE0
:100080000C947C0C0C947C0C0C947C0C0C947C0CD0
:100090000C947C0C0C947C0C0C947C0C0C94E375F0
:1000A0000C947C0C0C947C0C0C947C0C0C947C0CB0
:1000B0000C947C0C0C947C0C0C947C0C0C947C0CA0
:1000C0000C947C0C0C947C0C0C947C0C0C947C0C90
:1000D0000C947C0C0C947C0C0C947C0C0C947C0C80
:1000E0000C947C0C084AD73B3BCE016E84BCBFFD10
:1000F000C12F3D6C74319ABD56833DDA3D00C77FF8
:1001000011BED9E4BB4C3E916BAAAABE0000008090
:100110003F05A84CCDB2D44EB93836A9020C50B91F
:10012000918688083CA6AAAA2ABE000000803F004B
:100130000C94130D0C94261E0C94F51D0C941E1E8D
:100140000C94550F0C941D780C940B1E0C94210DDF
:100150000C94161E0C943C1E0C94CB0D0C942B0D81
:100160000C94650F0C94D20D0C941D0D0C94311E43
:100170000C94471E0C94CA0D0C94F80C0C94090DA9
:100180000C942F0D0C94560F0C94748B0C94250D1D
:100190000C94050D0C94CF770C94A01F0C94780F41
:1001A0000C94D90C0C946D1E0C94621E0C94FF0CD4
:1001B0000C94F6770C94831E0C94EB1D0C940F0D8D
:1001C0000C9439780C94F00C0C94170D0C94E9777E
:1001D0000C94A50F0C94F40C0C94781E0C944C3FCA
:1001E0000C94571E0C94DE0C0C94001E0C94377863
:1001F0000C9441780C94F01D0C946B770C948E1E2B
:100200000C94CB7F0C94FC0C0C9410780C949F1FD6
:100210000C94C90D4E414E494E495459494E46CD54
:10022000CCCC3D0AD7233C17B7D13877CC2B3295AD
:1002300095E6241FB14F0A000020410000C842008B
:10024000401C4620BCBE4CCA1B0E5AAEC59D7470E5
:10025000012C0190012701B0012201C0011D01F014
:100260000118011002130130020E01600209019011
:10027000020401C002FF000003FA004003F5008001
:1002800003F000D003EB002004E6007004E100E07E
:1002900004DC004005D700C005D2004006CD00D0E8
:1002A00006C8008007C3003008BE00F008B900C0CF
:1002B00009B400B00AAF00B00BAA00D00CA5000032
:1002C0000EA000500F9B00C010960050129100002D
:1002D000148C00C0158700B0178200B0197D00D0C3
:1002E0001B7800001E730040206E0090226900F011
:1002F00024640040275F0090295A00E02B5500102D
:100300002E500020304B0010324600E03341009068
:10031000353C001037370070383200A0392D00B05E
:100320003A2800A03B2300603C1E00103D190090BD
:100330003D1400103E0F00703E0A00C03E05000054
:100340003F000053657474696E67732053746F7255
:10035000656400205A0020590020204D323132209F
:1003600058004265642070726F6265206F66667324
:10037000657420286D6D293A00205A00205900200C
:10038000204D3231312058004D617820706F7369F3
:1003900074696F6E20286D6D293A00205A0020592B
:1003A0000020204D3231302058004D696E20706F92
:1003B000736974696F6E20286D6D293A00204400BE
:1003C0002049002020204D33303120500050494436
:1003D0002073657474696E67733A00205A0020595F
:1003E0000020204D323036205800486F6D65206F58
:1003F000666673657420286D6D293A0020450020DB
:100400005A0020580020420020540020204D323055
:1004100035205300416476616E63656420766172B5
:100420006961626C65733A20533D4D696E20666563
:1004300065647261746520286D6D2F73292C2054BA
:100440003D4D696E2074726176656C2066656564E9
:100450007261746520286D6D2F73292C20423D6DCB
:10046000696E696D756D207365676D656E74207456
:10047000696D6520286D73292C20583D6D61786960
:100480006D756D205859206A65726B20286D6D2F2F
:1004900073292C20205A3D6D6178696D756D205A45
:1004A000206A65726B20286D6D2F73292C202045E2
:1004B0003D6D6178696D756D2045206A65726B20B0
:1004C000286D6D2F73290020540020204D323034C8
:1004D000205300416363656C65726174696F6E3AA5
:1004E00020533D616363656C65726174696F6E2C46
:1004F00020543D7265747261637420616363656C3E
:1005000065726174696F6E00204500205A002059A1
:100510000020204D3230312058004D6178696D75D2
:100520006D20416363656C65726174696F6E20282C
:100530006D6D2F7332293A00204500205A00205952
:100540000020204D3230332058004D6178696D75A0
:100550006D2066656564726174657320286D6D2F0A
:1005600073293A00204500205A0020590020204DD0
:10057000393220580053746570732070657220758D
:100580006E69743A0053746F726564207365747495
:10059000696E677320726574726965766564004878
:1005A000617264636F6465642044656661756C7430
:1005B0002053657474696E6773204C6F6164656461
:1005C000006563686F3A002F005344207072696EB3
:1005D00074696E67206279746520004E6F742053D1
:1005E00044207072696E74696E67002E0044656CF9
:1005F0006574696F6E206661696C65642C2046695C
:100600006C653A200046696C652064656C657465AC
:10061000643A002E006F70656E206661696C6564D7
:100620002C2046696C653A2000504944204175747D
:100630006F74756E652066696E69736865642120E4
:1006400050757420746865204B702C204B692061B4
:100650006E64204B6420636F6E7374616E747320DC
:10066000696E746F20436F6E666967757261746935
:100670006F6E2E6800504944204175746F74756E1A
:1006800065206661696C6564212074696D656F75AC
:10069000740020403A006F6B20543A006F6B204288
:1006A0003A00504944204175746F74756E65206638
:1006B00061696C6564212054656D70657261747543
:1006C000726520746F6F206869676800204B643A18
:1006D0002000204B693A2000204B703A2000204334
:1006E0006C617369632050494420002054753A209E
:1006F00000204B753A2000206D61783A2000206D73
:10070000696E3A200020643A200020626961733AE1
:10071000200028002920453A00280029205A3A00C4
:1007200028002920593A00280020583A00537465BF
:10073000707065722063757272656E742076616C7C
:10074000756573205B2528726177295D3A00220068
:10075000556E6B6E6F776E20636F6D6D616E643A70
:100760002022007A5F6D696E3A2000795F6D6178B2
:100770003A2000785F6D696E3A20005A3A00593A83
:100780000020436F756E7420583A2000453A005A95
:100790003A00593A00583A002053455249414C5FBB
:1007A0004E554D4245523A2000204558545255442A
:1007B00045525F434F554E543A2000204D41434827
:1007C000494E455F545950453A20002050524F54ED
:1007D0004F434F4C5F56455253494F4E3A200020ED
:1007E0004649524D574152455F55524C3A200046BA
:1007F00049524D574152455F4E414D453A204D615A
:10080000726C696E2056310020423A0020453A0051
:10081000543A0020573A0020453A00543A0020420A
:10082000403A0020403A00202F003A002054002097
:100830002F0020423A00202F006F6B20543A0025F1
:1008400069206D696E2C2025692073656300456EF3
:10085000642066696C65206C697374004265676921
:100860006E2066696C65206C697374000A00205AFA
:100870003A200020593A200042656420506F736985
:1008800074696F6E20583A20000A00207A3A2000DE
:1008900020793A200042656420783A20000A00203E
:1008A0007A3A200020793A200042656420783A2084
:1008B000000A00207A3A200020793A20004265643C
:1008C00020783A20005A50726F6265204F75747319
:1008D0006964652042656400486F6D6520582F5932
:1008E000206265666F7265205A00526573656E649A
:1008F0003A20006F6B005072696E746572206861F7
:100900006C7465642E206B696C6C28292063616CA3
:100910006C656421005072696E7465722073746F27
:10092000707065642064756520746F206572726FE5
:1009300072732E2046697820746865206572726F24
:100940007220616E6420757365204D3939392074C9
:100950006F20726573746172742E202854656D70F7
:100960006572617475726520697320726573657450
:100970002E2053657420697420616674657220723C
:10098000657374617274696E6729000000A040008D
:1009900000A0400000803FFF01FF2200656E7175DE
:1009A00065696E672022007C3C3E5E2B3D3F2F5BDD
:1009B0005D3B2C2A225C0020746F6F206C6F6E6789
:1009C00020657874727573696F6E207072657665D4
:1009D0006E7465640020636F6C6420657874727552
:1009E00073696F6E2070726576656E7465640065FC
:1009F00063686F3A0024F4D43050C38E20C2A24002
:100A000017828B7011127A910D816CD90AA861E15D
:100A100008C7586607615143061E4B5D05C145A7CF
:100A2000041A411104093D9803713931034036DB42
:100A30000265339102D4305402802E1D02632CEEE5
:100A400001752AC501B028A001102781018F2564F6
:100A5000012B244B01E0223401AC211F018D200D1C
:100A600001801FFC00841EED00971DDF00B81CD222
:100A700000E61BC600201BBC00641AB200B219A815
:100A8000000A19A0006A189900D117910040178B2D
:100A900000B516840031167E00B31579003A15733F
:100AA00000C7146F0058146A00EE136600881363C1
:100AB0000025135E00C7125B006C1257001512541C
:100AC00000C111510070114F0021114B00D6104987
:100AD000008D1047004610440002104200C00F4035
:100AE00000800F3E00420F3C00060F3B00CB0E384B
:100AF00000930E37005C0E3500270E3400F30D32E4
:100B000000C10D3100900D3000600D2E00320D2D12
:100B100000050D2C00D90C2B00AE0C2900850C29EA
:100B2000005C0C2700350C27000E0C2600E80B2477
:100B300000C40B2400A00B23007D0B23005A0B21C3
:100B400000390B2100180B2000F80A1F00D90A1EDB
:100B500000BB0A1E009D0A1D00800A1D00630A1CBE
:100B600000470A1B002C0A1B00110A1A00F7091A79
:100B700000DD091900C4091900AB09190092091711
:100B8000007B091800630917004C09160036091686
:100B900000200916000A091500F5081500E00814E0
:100BA00000CC081400B8081400A40814009008131E
:100BB000007D0812006B0813005808120046081246
:100BC0000034081100230811001208110001081157
:100BD00000F0071000E0071000D0071000C0071059
:100BE00000B0070F00A107100091070E0083070F48
:100BF0000074070F0065070E0057070E0049070E27
:100C0000003B070D002E070E0020070D0013070DF7
:100C10000006070D00F9060C00ED060D00E0060CBD
:100C200000D4060C00C8060C00BC060C00B0060C74
:100C300000A4060B0099060C008D060B0082060B23
:100C40000077060B006C060B0061060A0057060BC6
:100C5000004C060A0042060A0038060A002E060A60
:100C60000024060A001A060A001006090007060AF0
:100C700000FD050900F4050900EB050900E205097E
:100C800000D9050900D0050900C7050900BE0509FE
:100C900000B5050800AD050800A50509009C05087C
:100CA00000940508008C050800840508007C0508F0
:100CB00000740508006C050700650508005D050760
:100CC00000560508004E05070047050700400508C7
:100CD0000038050700310507002A0507002305072E
:100CE000001C050600160507000F0507000805068D
:100CF0000002050700FB040600F5040700EE0406E9
:100D000000E8040600E2040700DB040600D5040640
:100D100000CF040600C9040600C3040600BD040693
:100D200000B7040600B1040500AC040600A60406E2
:100D300000A00405009B040600950405009004062D
:100D4000008A04050085040500800406007A040575
:100D50000075040500700405006B040500660405B9
:100D600000610405005C04050057040500520405F9
:100D7000004D04050048040500430405003E04043A
:100D8000003A04050035040500300404002C040575
:100D90000027040400230405001E0404001A0404B0
:100DA0000016040500110404000D040400090405E4
:100DB000000404040000040400FC030400F803041D
:100DC00000F4030400F0030400EC030400E803044F
:100DD00000E4030400E0030400DC030400D803047F
:100DE00000D4030400D0030400CC030400C80303B0
:100DF00000C503030024F404D9201BC40C5C0E9826
:100E000004C4095F0265077101F405F900FB04B32E
:100E10000048048700C103690058035500030345D7
:100E200000BE023A008402310053022A0029022542
:100E30000004022000E4011C00C8011900AF0117E2
:100E40000098011400840113007101100061011069
:100E50000051010E0043010D0036010B002B010B68
:100E60000020010B00150109000C01090003010815
:100E700000FB000800F3000800EB000700E4000698
:100E800000DE000600D8000600D2000600CC0005F7
:100E900000C7000500C2000500BD000400B9000441
:100EA00000B5000400B1000400AD000400A9000476
:100EB00000A5000300A20003009F0004009B0003A4
:100EC00000980003009500020093000300900003C7
:100ED000008D0002008B00030088000200860002E3
:100EE0000084000300810002007F0002007D0002F8
:100EF000007B00020079000200770001007600020A
:100F0000007400020072000100710002006F000214
:100F1000006D0001006C0002006A0001006900021F
:100F20000067000100660001006500010064000226
:100F3000006200010061000100600001005F00022A
:100F4000005D0001005C0001005B0001005A00012F
:100F5000005900010058000100570001005600012F
:100F6000005500010054000100530000005300012F
:100F7000005200010051000100500001004F00012B
:100F8000004E0000004E0001004D0001004C000129
:100F9000004B0000004B0001004A00010049000125
:100FA0000048000000480001004700010046000022
:100FB000004600010045000000450001004400011A
:100FC0000043000000430001004200000042000115
:100FD000004100000041000100400001003F00000E
:100FE000003F0001003E0000003E0001003D000007
:100FF000003D0001003C0000003C0000003C0001FE
:10100000003B0000003B0001003A0000003A0001F4
:1010100000390000003900010038000000380000ED
:1010200000380001003700000037000100360000E2
:1010300000360000003600010035000000350000D9
:1010400000350001003400000034000000340001CD
:1010500000330000003300000033000100320000C4
:1010600000320000003200010031000000310000B9
:1010700000310001003000000030000000300001AD
:10108000002F0000002F0000002F0000002F0001A3
:10109000002E0000002E0000002E0001002D000098
:1010A000002D0000002D0000002D0001002C00008C
:1010B000002C0000002C0000002C0001002B000080
:1010C000002B0000002B0000002B0001002A000074
:1010D000002A0000002A0000002A00010029000068
:1010E000002900000029000000290000002900015B
:1010F0000028000000280000002800000028000050
:101100000028000100270000002700000027000041
:101110000027000000270001002600000026000034
:101120000026000000260000002600010025000027
:10113000002500000025000000250000002500001B
:10114000002500010024000000240000002400000D
:101150000024000000240001002300000023000000
:1011600000230000002300000023000000230000F3
:1011700000230001002200000022000000220000E5
:1011800000220000002200000022000100210000D7
:1011900000210000002100000021000000210000CB
:1011A00000210000002100010020000000200000BC
:1011B00000200000002000000020000000200000AF
:1011C0000020000000200001001F0000001F0000A0
:1011D000001F0000001F0000001F0000001F000093
:1011E000001F0001001E0000001E0000001E000085
:1011F000001E0000001000AD0330016A0150022BF8
:101200000170030A019004F500B005E500D006D88E
:1012100000F007CE001009C500300ABE00500BB721
:1012200000700CB100900DAB00B00EA600D00FA264
:1012300000F0109D00101299003013950050149288
:101240000070158E0090168B00B0178700D01884A0
:1012500000F0198100101B7E00301C7B00501D79AE
:1012600000701E7600901F7300B0207000D0216EB9
:1012700000F0226B001024690030256600502663C0
:10128000007027610090285E00B0295C00D02A59C8
:1012900000F02B5600102D5400302E5100502F4ED0
:1012A0000070304B0090314800B0324500D03342DE
:1012B00000F0343E0010363B0030373700503833F2
:1012C0000070392E00903A2900B03B2300D03C1B1F
:1012D00000F03D1100103F0100F03F00003A2045B2
:1012E0007874727564657220737769746368656475
:1012F000206F66662E204D415854454D5020747223
:10130000696767657265642021003A2045787472C8
:1013100075646572207377697463686564206F66AD
:10132000662E204D494E54454D50207472696767B2
:101330006572656420210054656D70657261747515
:1013400072652068656174656420626564207377E6
:10135000697463686564206F66662E204D41585439
:10136000454D50207472696767657265642021215C
:10137000002020506C616E6E657242756666657203
:1013800042797465733A20002046726565204D6588
:101390006D6F72793A200041756720323520323006
:1013A000323400436F6D70696C65643A2000546597
:1013B0006368426F7943522C204162726168616DAB
:1013C0002050696E656461205A656C617961002006
:1013D0007C20417574686F723A2000417567203235
:1013E0003520323032342031303A35333A3333001D
:1013F000204C61737420557064617465643A2000F8
:10140000312E302E30004D61726C696E20002053F9
:101410006F6674776172652052657365740020573A
:1014200061746368646F672052657365740020425D
:10143000726F776E206F757420526573657400202B
:1014400045787465726E616C2052657365740050E6
:101450006F7765725570007374617274004D383423
:1014600020582059205A204500256920686F757240
:1014700073202569206D696E7574657300446F6E05
:1014800065207072696E74696E672066696C6500AC
:101490005072696E7465722073746F707065642029
:1014A00064756520746F206572726F72732E2046AA
:1014B000697820746865206572726F7220616E644D
:1014C00020757365204D39393920746F207265732A
:1014D000746172742E202854656D70657261747524
:1014E00072652069732072657365742E205365746C
:1014F000206974206166746572207265737461720C
:1015000074696E6729006F6B004E6F204C696E65C1
:10151000204E756D62657220776974682063686516
:10152000636B73756D2C204C617374204C696E6510
:101530003A20004E6F20436865636B73756D2077AA
:10154000697468206C696E65206E756D6265722CB9
:10155000204C617374204C696E653A2000636865A5
:10156000636B73756D206D69736D617463682C2096
:101570004C617374204C696E653A20004C696E654D
:10158000204E756D626572206973206E6F74204CF9
:10159000617374204C696E65204E756D6265722BA7
:1015A000312C204C617374204C696E653A200045E3
:1015B00072726F723A004D313130006572726F7223
:1015C0002077726974696E6720746F2066696C6534
:1015D0000020453A00205A3A0020593A0020583A53
:1015E00000656E6473746F7073206869743A2000CC
:1015F0006563686F3A00446F6E6520736176696E4B
:10160000672066696C652E006F6B004D32390000F3
:10161000002100240027002A002D003000330001A3
:10162000010000040107010A010000220025002832
:10163000002B002E003100340002010000050108DB
:10164000010B010505050507050808080802020247
:10165000020A0A080804040404010101010101014D
:10166000010303030303030303040707070C0C0C24
:101670000C0C0C0C0C0202020206060606060606FC
:10168000060B0B0B0B0B0B0B0B0102102020080899
:1016900010204010204080020102010804020101D4
:1016A00002040810204080804020100804020180BD
:1016B0000402018040201008040201080402010114
:1016C000020408102040800102040810204080001D
:1016D000000A0B02090C0D0E0807030401000000AC
:1016E00000000000000000000000000000000000FA
:1016F00000000000000000000000001211100000B7
:1017000000000000000000000000000000000000D9
:10171000000000000057726974696E6720746F20C2
:1017200066696C653A20002E006F70656E206661F8
:10173000696C65642C2046696C653A20002E006F48
:1017400070656E206661696C65642C2046696C6505
:101750003A200046696C652073656C656374656446
:10176000002053697A653A200046696C65206F70E5
:10177000656E65643A20002E006F70656E206661AC
:10178000696C65642C2046696C653A20004E6F7761
:101790002066726573682066696C653A20004E6F3A
:1017A0007720646F696E672066696C653A20002255
:1017B00020706F73002220706172656E743A22008F
:1017C000535542524F5554494E452043414C4C20AD
:1017D0007461726765743A2200747279696E672069
:1017E000746F2063616C6C207375622D67636F6426
:1017F000652066696C6573207769746820746F6F03
:10180000206D616E79206C6576656C732E204D417C
:1018100058206C6576656C2069733A0053442063E8
:10182000617264206F6B006F70656E526F6F742011
:101830006661696C656400766F6C756D652E696EA6
:101840006974206661696C6564004572726F723AF2
:1018500000534420696E6974206661696C00656399
:10186000686F3A002200656E717565696E672022A7
:10187000006563686F3A004D3234004D32332025E5
:1018800073006175746F25692E67004572726F72FF
:101890003A00CB7F748B11241FBECFEFD1E2DEBFA5
:1018A000CDBF00E00CBF14E0A0E0B2E0E2E6FEE253
:1018B00001E00BBF02C007900D92A633B107D9F724
:1018C00022E1A6E3B4E001C01D92A735B207E1F71B
:1018D0001CE0CAE4DCE000E006C021970109802F8B
:1018E000FE010E94AB96C934D10780E00807A9F732
:1018F0000E946C800C941F970C940000EDE5F2E0C0
:1019000080E090E0A0E8BFE380839183A283B3836B
:10191000148215821682178210861186128613860B
:101920001486158616861786808B918BA28BB38BB7
:10193000148A158A168A178A108E118E128E138EAB
:10194000148E158E168E178E80A391A3A2A3B3A317
:101950000895282F30E0F901E153F94E9491F901EF
:10196000E757F94E44912D5B394EF901249122231A
:1019700009F435C0992311F191509231F8F4E92F0F
:10198000F0E08827E953F34F8F4F0C94AB96F80C97
:10199000FC0CD90CF00CF40CDE0CFF0C050D090D41
:1019A0000F0D130D170D1D0D210DDE0C250D2B0D2B
:1019B0002F0D809180008F7780938000E22FF0E0E0
:1019C000EE0FFF1FE75DF94EA591B4918FB7F89424
:1019D000EC91611148C040954E234C938FBF089500
:1019E000809180008F7DE8CF80918000877FE4CF59
:1019F00084B58F7784BDE2CF84B58F7DFBCF809196
:101A0000B0008F778093B000D9CF8091B0008F7DE8
:101A1000F9CF809190008F7780939000CFCF809105
:101A200090008F7DF9CF80919000877FF5CF8091D6
:101A3000A0008F778093A000C1CF8091A0008F7D00
:101A4000F9CF8091A000877FF5CF809120018F771B
:101A500080932001B3CF809120018F7DF9CF8091B9
:101A60002001877FF5CF4E2BB8CFCF93DF9390E047
:101A7000FC01E757F94E24918D5B994EFC0184914E
:101A80008823D1F090E0880F991FFC01E15FF94EA7
:101A9000A591B491FC01E75DF94EC591D491611116
:101AA0000EC09FB7F8948C91E22FE0958E238C9313
:101AB0002881E223E8839FBFDF91CF9108958FB7FC
:101AC000F894EC91E22BEC938FBFF6CF3FB7F894EC
:101AD00080914C0B90914D0BA0914E0BB0914F0B00
:101AE00026B5A89B05C02F3F19F00196A11DB11D79
:101AF0003FBFBA2FA92F982F8827BC01CD01620FB5
:101B0000711D811D911D42E0660F771F881F991F6F
:101B10004A95D1F708958F929F92AF92BF92CF923C
:101B2000DF92EF92FF924B015C010E94660D6B0108
:101B30007C010E94660D6C197D098E099F09683E23
:101B4000734081059105A8F321E0821A9108A1084C
:101B5000B10888EEC80E83E0D81EE11CF11C811488
:101B60009104A104B10429F7FF90EF90DF90CF908A
:101B7000BF90AF909F908F9008952FB7F894609189
:101B8000480B7091490B80914A0B90914B0B2FBFE2
:101B900008950895089580918B0A90918C0A891B6D
:101BA000990B0895AF92BF92CF92DF92EF92FF927E
:101BB0000F931F93CF93DF936C017B018B01040F75
:101BC000151FEB015E01AE18BF08C017D10759F011
:101BD0006991D601ED91FC910190F081E02DC60153
:101BE0001995892B79F7C501DF91CF911F910F913D
:101BF000FF90EF90DF90CF90BF90AF90089520912D
:101C0000360A260F3327331F21323105ECF4209199
:101C1000050FFC0190E080E0243069F082E0089537
:101C2000A091360A2191AC014A5E554FA40FB52F01
:101C3000B11D2C930196861798F38091360A680F90
:101C40006093360A80E0089581E008951092050FB0
:101C500081E08093040F1092DF0E61E084E10E9426
:101C6000A90C61E085E10E94A90CE9EBF0E080811C
:101C70008E7F808380818D7F808388E48093B8000D
:101C800085E48093BC000895CF93DF9391E0909317
:101C9000150A8823B9F0C091B800D091BA0080919C
:101CA000BC008A7B8093BC0060E084E10E94A90CA8
:101CB00060E085E10E94A90C0E94260ED093BA0034
:101CC000C093B800DF91CF9108958F929F92AF9209
:101CD000BF92CF92DF92EF92FF920F931F93CF9319
:101CE000DF93D0912E0FD13208F0D7C0182FC091BA
:101CF0002D0F0E94660D6B017C018091050F8111F3
:101D00006BC082E08093050F1093040F8FEF8093D8
:101D1000030F1092020FD093010FADE0BFE0E1EE90
:101D2000FEE080E0D81391C01092E00E8091E00EAA
:101D3000CC0FC82BC093E00E8091DF0E813009F0EC
:101D400088C01092DF0E0E94660D6B017C018091AD
:101D5000E00E8093BB008091070F9091080FA09137
:101D6000090FB0910A0F892B8A2B8B2BA1F00E94AF
:101D7000660D0091070F1091080F2091090F309107
:101D80000A0F6C197D098E099F0906171707280786
:101D9000390708F442C08091BC0083FDD8CF85ECA0
:101DA0008093BC000E94660D6B017C018091050F41
:101DB000823009F450C08091030F8F3F09F46FC047
:101DC0008091030F803209F46CC08091030F80333F
:101DD00009F469C084E026C08091070F9091080F34
:101DE000A091090FB0910A0F892B8A2B8B2B09F434
:101DF00084CF0E94660D8090070F9090080FA090EE
:101E0000090FB0900A0F6C197D098E099F0986167B
:101E10009706A806B90608F070CF8091060F0E94B9
:101E2000440E85E010920C0F10922E0F10920B0FA3
:101E3000DF91CF911F910F91FF90EF90DF90CF90A6
:101E4000BF90AF909F908F9008959D9191938F5FD9
:101E500069CF85EEA5CF8091070F9091080FA091D3
:101E6000090FB0910A0F892B8A2B8B2B09F49ECF77
:101E70000E94660D0091070F1091080F2091090F25
:101E800030910A0F6C197D098E099F0906171707F3
:101E90002807390708F08ACFC0CF81E0C3CF80E0A0
:101EA000C1CF82E0BFCF83E0BDCF0895E0918C0A1F
:101EB00080918B0AE81730F4F0E0E959F54F808102
:101EC00090E008958FEF9FEF089590918C0A809194
:101ED0008B0A2FEF3FEF981748F4E92FF0E0E9590C
:101EE000F54F208130E09F5F90938C0AC9010895DF
:101EF000CF92DF92EF92FF920F931F93CF93DF93D6
:101F00007C01CB018A0120910B0F222389F0EB0188
:101F10006B01C40ED51ECC15DD0569F06991D701A2
:101F2000ED91FC910190F081E02DC7011995F3CF5F
:101F3000642F0E94FF0DC801DF91CF911F910F9177
:101F4000FF90EF90DF90CF900895CF93DF931F9293
:101F5000CDB7DEB7698320910B0F2223F9F02091D2
:101F60002E0F203258F021E030E0FC013383228331
:101F700090E080E00F90DF91CF91089580910C0F59
:101F8000E82FF0E0E35FF04F998190838F5F8093BB
:101F90000C0F80932E0F81E090E0ECCF61E0CE013A
:101FA00001960E94FF0DF7CF682F83E89FE00C9405
:101FB000A50FCF93DF9380918F0F91E090930B0F3C
:101FC00080932D0F10920C0F10922E0FCFE8DFE0B0
:101FD0006F8583E89FE00E94A50F6E8583E89FE0F0
:101FE0000E94A50F22968FE0C739D80789F781E0B4
:101FF000DF91CF910C94650E91E090930B0F1092AE
:102000002D0F10920C0F10922E0F682F83E89FE077
:102010000E94A50F81E00C94650E4F925F926F9223
:102020007F928F929F92AF92BF92CF92DF92EF9268
:10203000FF92CF93DF9300D000D01F921F92CDB7B5
:10204000DEB72496AEADBFAD24978D919D910D90D6
:10205000BC91A02D89839A83AB83BC832296EEAD7D
:10206000FFAD2297C080D180E280F380AEADBFADDE
:102070008D909D90AD90BC902E8D3F8D48A159A123
:10208000C501B4010E94928B2B013C012AA53BA5FE
:102090004CA55DA5C701B6010E94928B9B01AC01C6
:1020A000C301B2010E94E7922B013C012EA93FA976
:1020B00048AD59AD69817A818B819C810E94928B58
:1020C0009B01AC01C301B2010E94E7926D837E8344
:1020D0008F8398872AA13BA14CA15DA1C501B401C2
:1020E0000E94928B2B013C012EA53FA548A959A91E
:1020F000C701B6010E94928B9B01AC01C301B201E2
:102100000E94E7922B013C012AAD3BAD4CAD5DAD89
:1021100069817A818B819C810E94928B9B01AC01A9
:10212000C301B2010E94E7922B013C012A8D3B8D35
:102130004C8D5D8DC501B4010E94928B4B015C01F9
:102140002EA13FA148A559A5C701B6010E94928BB7
:102150009B01AC01C501B4010E94E7926B017C01B7
:102160002AA93BA94CA95DA969817A818B819C81AF
:102170000E94928B9B01AC01C701B6010E94E792BD
:10218000EEADFFAD60837183828393838D819E81E9
:10219000AF81B8852296EEADFFAD22978083918303
:1021A000A283B3832496AEADBFAD24974D925D92CA
:1021B0006D927C92139728960FB6F894DEBF0FBEEF
:1021C000CDBFDF91CF91FF90EF90DF90CF90BF9088
:1021D000AF909F908F907F906F905F904F900895F9
:1021E0001092920A1092910A1092FE091092FD0923
:1021F0001092140A2C981092940A1092930A10923A
:10220000150A1092FE091092FD091092120A9FB74A
:10221000F894E2E0F1E080818F7D80839FBF089594
:102220004F925F926F927F92AF92BF92CF92DF9266
:10223000EF92FF920F931F93CF93DF9324E030E050
:1022400041E050E0D901AB50BE4EFD016591749163
:10225000861797070CF066C041505109440F551F6F
:10226000440F551FEA01C950DE4EFE01059114913D
:102270004B505E4EFA0165917491F901E950FE4EA2
:10228000E590F490FE01C590D490FD01C591D491E4
:10229000FA01A590B490861B970BBC01990F880B8F
:1022A000990B0E94558F2B013C01B7016C197D09D8
:1022B000072E000C880B990B0E94558F9B01AC01D7
:1022C000C301B2010E94928B6B017C01BE016A19AD
:1022D0007B09072E000C880B990B0E94558F9B01E0
:1022E000AC01C701B6010E94E1936B017C01B8010A
:1022F000110F880B990B0E94558F9B01AC01C701F0
:10230000B6010E94E792DF91CF911F910F91FF904C
:10231000EF90DF90CF90BF90AF907F906F905F90E5
:102320004F9008954F5F5F4F2C5F3F4F283E310520
:1023300009F088CFEBEDF2E165917491072E000C66
:10234000880B990B0E94558FDECF2091520230915D
:102350005302409154025091550260E070E08FE7C3
:1023600093E40E94E19360935F0A7093600A809304
:10237000610A9093620A0895CF92DF92EF92FF92E2
:102380000F931F93CF93DF9380918D0A882309F4D5
:102390004AC080918F0F91E090930B0F80932D0F87
:1023A00010920C0F10922E0F80E590E00E94D40F37
:1023B00081E9C82E8FE0D82ECFE8DFE097E9E92E3B
:1023C0009FE0F92EF60121916F010F8510E0F0E8F2
:1023D0002F9F90011124202B312BF6018781F0E2F1
:1023E0008F9FC0011124282B392BF6018381F0E146
:1023F0008F9FC0011124822B932B0E94D40F6E85D6
:1024000083E89FE00E94A50F2296EC16FD06D1F608
:1024100081E0DF91CF911F910F91FF90EF90DF90BE
:10242000CF900C94650EDF91CF911F910F91FF908B
:10243000EF90DF90CF900895CF92DF92EF92FF92CE
:10244000CF93DF93C82F6A017B0180918D0A882387
:10245000B9F120E030E048EC52E4CB01B6010E9433
:102460004795181634F4C12CD12C98ECE92E92E43F
:10247000F92EEC2FF0E0E653FD4FC081D0E0CC0FF9
:10248000DD1FC356D04F20E030E04CE555E4C701D6
:10249000B6010E94928B20E030E048EC52E40E94AA
:1024A000E1930E945A94798368830E94D90F88E04F
:1024B000DF91CF91FF90EF90DF90CF900C94FC0FC5
:1024C000DF91CF91FF90EF90DF90CF900895CF9361
:1024D000DF932FB7F89494E0899FE0011124FE0167
:1024E000E15DF04F60817181828193812FBF0E94F5
:1024F000558FCD58D04F288139814A815B810E9408
:10250000E193DF91CF9108958F929F92AF92BF9206
:10251000EF92FF920F931F93CF93DF93CDEDD4E013
:1025200083E7E82E8FE0F82E0DEC14E069917991A5
:1025300089919991F70181909190A190B1907F013B
:102540000E94538FA50194010E94928B0E945A947D
:10255000F80161937193819391938F01F4E0CD3EE3
:10256000DF0721F7DF91CF911F910F91FF90EF903F
:10257000BF90AF909F908F9008954F925F926F920F
:102580007F928F929F92AF92BF92CF92DF92EF9203
:10259000FF920F931F93CF93DF9300D000D01F9231
:1025A0001F92CDB7DEB78C0182E00E94671269836B
:1025B0007A838B839C8381E00E9467126B017C018C
:1025C00080E00E9467124B015C012091690230910A
:1025D0006A0240916B0250916C020E94928B2B0117
:1025E0003C0120916D0230916E0240916F0250913A
:1025F0007002C701B6010E94928B9B01AC01C3011E
:10260000B2010E94E7922B013C01209171023091AE
:102610007202409173025091740269817A818B81B8
:102620009C810E94928B9B01AC01C301B2010E946C
:10263000E7926D837E838F83988720917502309116
:1026400076024091770250917802C501B4010E9450
:10265000928B2B013C012091790230917A024091BA
:102660007B0250917C02C701B6010E94928B9B01B4
:10267000AC01C301B2010E94E7922B013C01209101
:102680007D0230917E0240917F02509180026981EB
:102690007A818B819C810E94928B9B01AC01C3014A
:1026A000B2010E94E7922B013C01ADE5B2E02D9111
:1026B0003D914D915C91C501B4010E94928B4B01FB
:1026C0005C0120916102309162024091630250915D
:1026D0006402C701B6010E94928B9B01AC01C50147
:1026E000B4010E94E7926B017C0120916502309158
:1026F0006602409167025091680269817A818B81FC
:102700009C810E94928B9B01AC01C701B6010E9483
:10271000E792F80160837183828393838D819E8128
:10272000AF81B88584839583A683B783408651861D
:1027300062867386C80128960FB6F894DEBF0FBE76
:10274000CDBFDF91CF911F910F91FF90EF90DF9060
:10275000CF90BF90AF909F908F907F906F905F9041
:102760004F900895FC0120E03EE2DB014D91BD0158
:10277000403249F0283011F430833196DB01119753
:102780004C91408331962F5F2B3079F7108208955A
:1027900061E0FC0180810C94A90C8EBD0DB407FE94
:1027A000FDCF08958FEF8EBD0DB407FEFDCF8EB522
:1027B00008950F931F93CF93DF93EC010E94BD0DFB
:1027C0008B010E94D2138F3F69F00E94BD0D601BE8
:1027D000710B6C177D07A8F380E0DF91CF911F91FB
:1027E0000F91089581E0F9CF8F929F92AF92BF929F
:1027F000EF92FF920F931F93CF937C01C62F490155
:102800005A01FC019281892F806A86958CBD90FDCA
:1028100003C081E0963009F480E08DBD60E0F701EF
:1028200080810E94A90C8CE291E00E94D9138C2F28
:1028300080640E94CD1308E110E0D501C401002E90
:1028400004C0B695A795979587950A94D2F70E94EC
:10285000CD1308501109083FFFEF1F0771F785E9F5
:10286000CC2321F087E8C83009F08FEF0E94CD1308
:10287000CC3011F40E94D213C0E00E94D213F701B1
:10288000838387FF04C0CF3F11F0CF5FF6CFCF9196
:102890001F910F91FF90EF90BF90AF909F908F90FE
:1028A00008950F931F93CF93DF93EC0189018C81DF
:1028B000833039F089E0440F551F661F771F8A95D2
:1028C000D1F79A01AB0168E1CE010E94F41388238D
:1028D00019F086E089833AC08EEF8EBDF801C801F9
:1028E0009E5F0DB407FEFDCF20812EBD0DB407FE07
:1028F000FDCF21812EBD3296E817F90791F70DB46F
:1029000007FEFDCF8FEF0E94CD138FEF0E94CD13F6
:102910000E94D2138B838F71853099F488E592E001
:102920000E94D913182F87E11123A1F220E030E093
:10293000A9016DE0CE010E94F413882361F086E1C5
:10294000C9CF83E18983CE010E94C813CE010E94C2
:10295000C81310E007C00E94D2138111F0CFCE013E
:102960000E94C813812FDF91CF911F910F9108957D
:102970000F931F93CF938091580DC1E08823A9F046
:102980000091590D10915A0D4091500D5091510DDB
:102990006091520D7091530D20E53BE0C8010E94FB
:1029A0005114C82F811106C0C0E08C2FCF911F9108
:1029B0000F9108954091540D5091550D6091560D11
:1029C0007091570D411551056105710579F020E5AC
:1029D0003BE0C8010E945114882331F31092540D3A
:1029E0001092550D1092560D1092570D1092580DD1
:1029F000DCCFEF92FF920F931F93CF93DF93EC0105
:102A000079018C81833039F089E0440F551F661FAE
:102A1000771F8A95D1F79A01AB0161E1CE010E943F
:102A2000F413882369F084E08983CE010E94C813DF
:102A300080E0DF91CF911F910F91FF90EF9008956B
:102A40000E94BD0D8B010E94D2138B838F3F49F4EE
:102A50000E94BD0D601B710B6D327140A0F381E1CE
:102A6000E3CF8E3F11F08FE0DFCF8FEF8EBDF70108
:102A7000D701A150BE4F0DB407FEFDCF9EB5919377
:102A80008EBDAE17BF07B9F70DB407FEFDCF8EB5EB
:102A90008C930E94D2130E94D213CE010E94C813BD
:102AA00081E0C7CFCF92DF92EF92FF92CF936B017D
:102AB0007C01C42F8091500D9091510DA091520D29
:102AC000B091530D8C159D05AE05BF0501F10E9417
:102AD000B814811108C0C0E08C2FCF91FF90EF9007
:102AE000DF90CF90089520E53BE0B701A6018091EB
:102AF000590D90915A0D0E94F914882361F3C092E8
:102B0000500DD092510DE092520DF092530DCC2306
:102B100021F081E08093580DDFCFC1E0DDCF8F92AF
:102B20009F92AF92BF92CF92DF92EF92FF92CF939C
:102B3000DF932AE631E130935A0D2093590D10921C
:102B4000861142E050E060E070E040936F115093D6
:102B5000701160937111709372111092580D109250
:102B6000540D1092550D1092560D1092570D4FEFB7
:102B70005FEFBA014093500D5093510D6093520D89
:102B80007093530D882309F470C040E060E070E05A
:102B9000CB010E94521581110DC0C0E08C2FDF9136
:102BA000CF91FF90EF90DF90CF90BF90AF909F902C
:102BB0008F90089580910E0D8F7779F780911A0D7F
:102BC00090911B0DA0911C0DB0911D0D84369105A7
:102BD000A105B10510F3C090160DD090170DE0902F
:102BE000180DF090190DC114D104E104F104A9F2FB
:102BF00040E0C701B6010E945215C82F882369F230
:102C000080915B0B90915C0B8115924031F6A09105
:102C1000600BAA2311F260915E0B70915F0B61153E
:102C2000710509F4BACF20915D0B222309F4B5CFC9
:102C3000A09381112093731190E080E030E0E1E0F7
:102C4000F0E0D82FAF01082E02C0440F551F0A94A0
:102C5000E2F72417350769F041E0480F0196893003
:102C6000910579F740937C1198CFC12CD12C760136
:102C7000BFCF80937C112091660B3091670B50E0A1
:102C800040E02115310541F42091740B3091750B12
:102C90004091760B5091770B2093741130937511FE
:102CA000409376115093771146015701860E971E77
:102CB000A11CB11C8092821190928311A092841168
:102CC000B0928511E091610BF091620BF093881145
:102CD000E0938711B0E00E94C492DC01CB01880D23
:102CE000991DAA1DBB1D8093891190938A11A093F1
:102CF0008B11B0938C1125E0EE0FFF1F2A95E1F7A1
:102D0000E150FE4FEF2FFF27E6958E0F9F1FA11D6D
:102D1000B11D80937D1190937E11A0937F11B0938C
:102D200080118090630B9090640BB12CA12C8114C6
:102D3000910441F48090700B9090710BA090720BF5
:102D4000B090730BC81AD90AEA0AFB0AC80CD91C3E
:102D5000EA1CFB1C04C0F694E794D794C794DA9558
:102D6000D2F7C0927811D0927911E0927A11F09254
:102D70007B1185EFC8168FE0D806E104F10420F43A
:102D80008CE08093861109CF80E125EFC2162FEFEA
:102D9000D206E104F10488F080917C0B90917D0BC8
:102DA000A0917E0BB0917F0B8093891190938A1133
:102DB000A0938B11B0938C1180E280938611EECE9C
:102DC0004F925F926F927F928F929F92AF92BF923B
:102DD000CF92DF92EF92FF920F931F93CF93DF93E7
:102DE000EC01423051056105710590F480E0DF91FE
:102DF000CF911F910F91FF90EF90DF90CF90BF90F8
:102E0000AF909F908F907F906F905F904F900895BC
:102E100089859A85AB85BC850196A11DB11D841756
:102E20009507A607B70710F38F898031C9F5852E5E
:102E3000962EA72EBB248B899C89AD89BE89880ECE
:102E4000991EAA1EBB1E280139016A017B0141E0BF
:102E5000C501B4010E945215882341F29F89903127
:102E600081F5DD24EE24FF24F601EE0FFF1FE05B69
:102E7000F44F118300839A89923008F4B8CF4D81C2
:102E80005E816F817885840E951EA61EB71E809286
:102E9000540D9092550DA092560DB092570DA7CF9C
:102EA000803209F0A3CF8B899C89AD89BE894A0104
:102EB0005B01E7E0B694A79497948794EA95D1F7DD
:102EC000BECFE894C7F8DD24EE24FF24F601EE0F10
:102ED000FF1FEE0FFF1FE05BF44F408251826282C2
:102EE0007382C9CFCF92DF92EF92FF920F931F931D
:102EF000CF93DF93FC0181859285A385B4850196EC
:102F0000A11DB11D84179507A607B70750F480E0EF
:102F1000DF91CF911F910F91FF90EF90DF90CF90B5
:102F2000089587898031A9F5BB27A72F962F852F74
:102F3000C388D488E588F6888C0D9D1DAE1DBF1D05
:102F4000E9016A017B018F014091500D5091510DB3
:102F50006091520D7091530D84179507A607B7071E
:102F600049F5F8018789803169F5B701A601552730
:102F700066277727440F551F405B544FFA01808125
:102F80009181B0E0A0E088839983AA83BB8381E02C
:102F9000BFCF803209F0BBCFC388D488E588F688DC
:102FA000DB01CA01C7E0B695A79597958795CA95A5
:102FB000D1F7C2CF40E0BC01CD010E945215811172
:102FC000D0CFA5CFB701A6014F7755276627772722
:102FD000440F551F440F551F405B544FFA01808129
:102FE0009181A281B381BF70CECF4F925F926F92D9
:102FF0007F92AF92BF92CF92DF92EF92FF920F93A8
:103000001F93CF93DF9300D01F92CDB7DEB78C0113
:1030100049835A836B837C835901C12CD12C76015F
:10302000412C82E0582E612C712C49815A816B8190
:103030007C819E012F5F3F4FC8010E947217882339
:1030400019F1F8018585A301920104C0220F331FF5
:10305000441F551F8A95D2F7DA01C901C80ED91E3F
:10306000EA1EFB1E49815A816B817C8187898031F0
:10307000F1F481E0483F5F4F61057105B0F2F50161
:10308000C082D182E282F3820F900F900F900F9056
:10309000DF91CF911F910F91FF90EF90DF90CF9034
:1030A000BF90AF907F906F905F904F90089581E0B8
:1030B000483F5F4F6F4F7F4008F4B7CFE0CF0F938B
:1030C0001F93CF93DF93FC012381222331F080E013
:1030D000DF91CF911F910F9108958B01EC01FB01BE
:1030E0008789803139F582E08B831D8A1E8A1F8A89
:1030F000188E808D918DB0E0A0E025E0880F991F9B
:10310000AA1FBB1F2A95D1F7898B9A8BAB8BBC8BDF
:103110001A8F098F81E089831C821D821E821F8283
:10312000188619861A861B861C861D861E861F8693
:10313000188ACECF803259F683E08B83428D538D2F
:10314000648D758D4D8B5E8B6F8B788F9E012F5E9E
:103150003F4FC8010E94F5178111DACFB8CF8F9287
:103160009F92AF92BF92CF92DF92EF92FF920F9316
:103170001F93CF93DF93EC018B8181110EC080E010
:10318000DF91CF911F910F91FF90EF90DF90CF9043
:10319000BF90AF909F908F90089509891A892B89CD
:1031A0003C89041715072607370748F34A015B01D6
:1031B000823031F488869986AA86BB8681E0E0CF8A
:1031C00081149104A104B10449F41C821D821E8261
:1031D0001F82188619861A861B86F0CF08851985E6
:1031E0002A853B85E98DFA8D858590E00996B901A0
:1031F000A8014150510961097109082E04C0769552
:103200006795579547950A94D2F775016401E1E0F7
:10321000CE1AD108E108F10804C0F694E794D794D7
:10322000C7948A95D2F7C416D506E606F70620F0AD
:10323000012B022B032B11F58D899E89AF89B88D47
:103240008C839D83AE83BF838E010C5F1F4FC1149F
:10325000D104E104F10409F4ADCF4C815D816E81AC
:103260007F819801898D9A8D0E94721791E0C91A09
:10327000D108E108F1088111EACF81CFC41AD50A3B
:10328000E60AF70AE1CF3F924F925F926F927F92E8
:103290008F929F92AF92BF92CF92DF92EF92FF9266
:1032A0000F931F93CF93DF93CDB7DEB72C970FB655
:1032B000F894DEBF0FBECDBF5C01DC0159968D9046
:1032C0009C90F40181859285A385B4859C01AD0114
:1032D0002F5F3F4F4F4F5F4F29873A874B875C8760
:1032E000D50114964D905D906D907C901797411488
:1032F00051046104710409F459C0BFEF4B1A5B0A11
:103300006B0A7B0A312C730162011D821E821F82AF
:103310001886F40181859285A385B4852D813E812F
:103320004F815885281739074A075B0708F056C0B0
:1033300089859A85AB85BC858C159D05AE05BF0535
:1033400050F482E0C82ED12CE12CF12C92E0492ED1
:10335000512C612C712C9E012F5F3F4FB701A601AC
:10336000C4010E9472178823C9F189819A81AB81B7
:10337000BC81892B8A2B8B2B01F1260137019FEF12
:10338000491A590A690A790A2D813E814F81588567
:103390002F5F3F4F4F4F5F4F2D833E834F835887A3
:1033A0003FEFC31AD30AE30AF30AB3CF4080518038
:1033B0006280738033243394A6CFC414D504E6040A
:1033C000F70411F70FEF1FEF2FEF3FE0B701A60152
:1033D000C4010E94E016782E81111AC0712C872D2D
:1033E0002C960FB6F894DEBF0FBECDBFDF91CF9104
:1033F0001F910F91FF90EF90DF90CF90BF90AF9013
:103400009F908F907F906F905F904F903F90089526
:10341000F50144815581668177814115510561052A
:10342000710539F097018601C4010E94E0168823D6
:10343000A9F2D5011496CD92DD92ED92FC921797E8
:10344000332051F0D701C6010196A11DB11DF40131
:1034500080839183A283B383F50185899689A789A7
:10346000B08D892B8A2B8B2B09F0B9CFC58AD68AD0
:10347000E78AF08E818180688183B1CFCF93DF931B
:10348000EC01462F41706C857D858E859F850E945D
:103490005215882351F0888920E2829FC0011124AF
:1034A000805B944FDF91CF91089590E080E0FACF58
:1034B000CF93DF93EC018B81882349F1898187FFCA
:1034C00022C061E0CE010E943E1AFC01892BF9F076
:1034D0008081853EE1F08B81823040F489899A8930
:1034E000AB89BC89848F958FA68FB78F8D899E8974
:1034F000938F828F8D899E89AF89B88DB58BA48B70
:1035000089818F778983DF91CF910C94B81481E002
:10351000888380E0DF91CF910895CF93DF93EC0112
:103520000E94581A1B82DF91CF910895CF92DF92AB
:10353000EF92FF921F93CF93DF931092C60F80916B
:10354000F90F882321F086EF9FE00E948D1A1092D8
:103550006E1110926B1185E380936A110E94BD0D6C
:10356000EB0161E080916A110E94350D8AE691E1DC
:103570000E94C81360E082E30E94350D61E083E39E
:103580000E94350D61E084E30E94350D61E085E322
:103590000E94350D61E085E30E94A90C85E08093CF
:1035A0006C1182E58CBD1DBC1AE08FEF0E94CD131B
:1035B0001150D9F720E030E0A90160E08AE691E1FE
:1035C0000E94F413182F80936D118130E1F00E9456
:1035D000BD0D6C1B7D0B613D774060F381E08093F6
:1035E0006B118AE691E10E94C813EEE5F8E184913F
:1035F000882309F487C09091C00095FFFCCF809389
:10360000C6003196F4CF2AEA31E040E050E068E0AD
:103610008AE691E10E94F41382FF2AC010936E1192
:1036200080916E11C12CD12C7601823029F4C12CED
:10363000D12CE12C80E4F82E20E030E0A90167E3F2
:103640008AE691E10E94F413A701960169E28AE6F5
:1036500091E10E94F41380936D118823C1F00E94C0
:10366000BD0D6C1B7D0B613D774030F38AE0B7CF19
:1036700014E00E94D21380936D111150D1F78A3A51
:1036800011F082E0ACCF82E080936E11C9CF8091BF
:103690006E118230D1F420E030E0A9016AE38AE6BD
:1036A00091E10E94F413882311F088E098CF0E94E2
:1036B000D213807C803C19F483E080936E110E94C9
:1036C000D2130E94D2130E94D2138AE691E10E9483
:1036D000C81310926C1181E00E948F15811157C0A0
:1036E00080E00E948F15811152C0EAE4F8E18491D4
:1036F0008823D9F19091C00095FFFCCF8093C6003C
:103700003196F5CFE1E5F8E18491882341F090917D
:10371000C00095FFFCCF8093C6003196F5CF809115
:10372000C00085FFFCCF8AE08093C6008BE1E6EF06
:10373000FFE0A7E1B0E101900D928A95E1F7809159
:10374000F40F9091F50F909316108093151082EF5F
:103750009FE09093121080931110DF91CF911F91F1
:10376000FF90EF90DF90CF900895E7E3F8E1849128
:10377000882341F09091C00095FFFCCF8093C60054
:103780003196F5CF8091C00085FFFCCFCCCF6FE69E
:1037900071E186EF9FE00E945F1881111FC0EAE48B
:1037A000F8E18491882341F09091C00095FFFCCF0F
:1037B0008093C6003196F5CFE7E2F8E18491882343
:1037C00041F09091C00095FFFCCF8093C6003196E8
:1037D000F5CF8091C00085FFFCCFA5CF81E080931D
:1037E000C60FEEE5F8E18491882341F09091C00086
:1037F00095FFFCCF8093C6003196F5CFECE1F8E160
:103800008491882341F09091C00095FFFCCF809374
:10381000C6003196F5CF8091C00085FFFCCF83CFE5
:10382000CF93DF93EB01FC012381211104C080E0E1
:10383000DF91CF9108952250223028F48FE28883BF
:10384000198281E0F5CF60E00E943E1A009779F37B
:10385000DC0160E080E09EE22D91203299F088301A
:1038600031F49E01260F311DF90190836F5F9E0197
:10387000260F311DAD0141505109FA014081F90176
:1038800040836F5F8F5F8B3039F7FE01E60FF11DCC
:103890001082D7CF0E94F01080919E0A811134C00F
:1038A00081E080939E0A80919F0A9091A00AA09146
:1038B000A10AB091A20A8093620490936304A0933A
:1038C0006404B0936504EFEAF5E18491882341F044
:1038D0009091C00095FFFCCF8093C6003196F5CF44
:1038E000E5E1F9E08491882341F09091C00095FFD3
:1038F000FCCF8093C6003196F5CF8091C00085FF44
:10390000FCCF8AE08093C6000895F8940E94F010DE
:103910005F9A10928E0A8A9A10928F0A9FB7F89433
:10392000809108018160809308019FBF1092900AE6
:10393000129A60E08CE00E94350DEFEAF5E1849187
:10394000882341F09091C00095FFFCCF8093C60082
:103950003196F5CFE6EFF8E08491882341F090911D
:10396000C00095FFFCCF8093C6003196F5CF8091C3
:10397000C00085FFFCCF8AE08093C600FFCF4F9246
:103980005F926F927F928F929F92AF92BF92CF92EF
:10399000DF92EF92FF920F931F93CF93DF930E94DA
:1039A000BD0D80905E0490905F04A0906004B09084
:1039B000610400915A0410915B0420915C043091E1
:1039C0005D04681979098A099B09061717072807F2
:1039D000390730F4012B022B032B11F00E94851CB8
:1039E000C0901C02D0901D02E0901E02F0901F02B9
:1039F000C114D104E104F10411F10E94BD0D681954
:103A000079098A099B09C616D706E806F906B8F4AB
:103A10009091970A8091960A981311C05F9A10921C
:103A20008E0A8A9A10928F0A9FB7F89480910801A3
:103A30008160809308019FBF1092900A129AC091F2
:103A4000BF049091960A8091970A981781F080910F
:103A5000960A9DE4899FF0011124E45AFA4FC0812F
:103A60009091970A981719F08F5F8F70F9CF61E0E6
:103A700089E00E94350DC1118AC060E089E00E9492
:103A8000A90C8091980A882309F4C1C1C0905902F9
:103A9000D0905A02E0905B02F0905C026091910A33
:103AA0007091920A072E000C880B990B0E94558F7B
:103AB00020E030E040E050E40E94E7929601A70148
:103AC0000E944E8F87FDA3C1C091960A912CA12C14
:103AD000B12CD0E08DE4882E8091970A8C1709F4E0
:103AE00020C18C2F90E0889EF001899EF00D11245A
:103AF000EC5EFA4F4081518162817381452B462BE8
:103B0000472B81F44481558166817781452B462B73
:103B1000472B41F44085518562857385452B462BA3
:103B2000472B91F1889E8001899E100D11240C5E17
:103B30001A4FF80164857585868597850E94558F93
:103B40002B013C01F80160897189828993890E9467
:103B5000538F9B01AC01C301B2010E94E193F801B4
:103B600022A133A144A155A10E94928B3B018C015B
:103B7000292D3A2D4B2D5D2F0E944795181624F4C0
:103B8000962CA72CB02ED12FCF5FCF70A5CFCF3FD3
:103B900011F461E073CFE8EDF6E1E491E150E23138
:103BA00008F0BCC0F0E08827E752F24E8F4F0C942B
:103BB000AB96EB1DF01DF51D001E0B1E8E1E161E76
:103BC0001E1E261E311E3C1E471E571E621E8E1EC6
:103BD0006D1E781E831E84B5806884BDC7BD51CF1D
:103BE00084B5806284BDC8BD4CCF80918000806860
:103BF00080938000D0E0D0938900C093880041CFAB
:103C000080918000806280938000D0E0D0938B0010
:103C1000C0938A0036CF80918000886080938000B6
:103C2000D0E0D0938D00C0938C002BCF8091B0005A
:103C300080688093B000C093B30023CF8091B00020
:103C400080628093B000C093B4001BCF809190003D
:103C5000806880939000D0E0D0939900C093980042
:103C600010CF80919000806280939000D0E0D0933C
:103C70009B00C0939A0005CF80919000886080934C
:103C80009000D0E0D0939D00C0939C00FACE80912C
:103C9000A00080688093A0008091A0008F7B80931B
:103CA000A000D0E0D093A900C093A800EACE8091F4
:103CB000A00080628093A000D0E0D093AB00C093BE
:103CC000AA00DFCE8091A00088608093A000D0E0A1
:103CD000D093AD00C093AC00D4CE80912001806819
:103CE00080932001D0E0D0932901C0932801C9CE50
:103CF00080912001806280932001D0E0D0932B013D
:103D0000C0932A01BECE809120018860809320015B
:103D1000D0E0D0932D01C0932C01B3CEC7FD39CF95
:103D2000ACCE209118023091190240911A025091A4
:103D30001B02692D7A2D8B2D9D2F0E94928B96014F
:103D4000A7010E94E7928B01D82FC92F9B01482F12
:103D5000592FB601C7010E94479518161CF4860119
:103D6000DE2DCF2DC0901402D0901502E0901602E7
:103D7000F090170298014D2F5C2FB601C7010E94E9
:103D80004E8F87FF03C08601DE2DCF2DC0905604D5
:103D9000D0905704E0905804F090590498014D2FAA
:103DA0005C2FC701B6010E9447951816E4F428E479
:103DB00031EE4AE75FE3C701B6010E94928B6B01C7
:103DC0007C0120E037ED43EA5CE3B8018D2F9C2FA6
:103DD0000E94928B9B01AC01C701B6010E94E79241
:103DE0008B01D82FC92FC801AD2FBC2F809356044B
:103DF00090935704A0935804B0935904B8018D2FA1
:103E00009C2F0E9453947093920A6093910ADF91C1
:103E1000CF911F910F91FF90EF90DF90CF90BF90C7
:103E2000AF909F908F907F906F905F904F9008958C
:103E30000E94BD0D60935E0470935F0480936004E4
:103E400090936104E091450BF091460BE755F54FD7
:103E50008081811114C0E3EFF8E08491882341F060
:103E60009091C00095FFFCCF8093C6003196F5CFAE
:103E70008091C00085FFFCCF8AE08093C600089542
:103E8000109258028091410490914204A091430401
:103E9000B091440480932C0290932D02A0932E02A3
:103EA000B0932F0280913F049091400490931302AD
:103EB000809312020E94BD0D60935E0470935F04B4
:103EC0008093600490936104089580912C029091F6
:103ED0002D02A0912E02B0912F0280934104909365
:103EE0004204A0934304B093440480911202909141
:103EF00013029093400480933F0484E690E09093F3
:103F00001302809312020E94BD0D60935E047093B1
:103F10005F04809360049093610481E08093580271
:103F20000895FC01238121110C948D1A089524EE2B
:103F300032E0FC013183208304960C94911F089594
:103F400090E080E00895AF92BF92CF92DF92EF921F
:103F5000FF920F931F93CF93DF93CDB7DEB7E09718
:103F60000FB6F894DEBF0FBECDBF80E1E1E8F2E00E
:103F7000DE01119601900D928A95E1F780E1E1E969
:103F8000F2E0DE01519601900D928A95E1F780E111
:103F9000E1EAF2E0DE01919601900D928A95E1F757
:103FA000CE0101965C0163E77FE0DE01519643EAB2
:103FB00054E09E012F5D3F4F8DED94E08D01F501A2
:103FC000C190D190E190F1905F01FB01C192D1923B
:103FD000E192F192BF01CD90DD90ED90FD90FA015C
:103FE000C192D192E192F192AF01F901C190D190C9
:103FF000E190F1909F01FC01C192D192E192F19286
:10400000CF01A016B106D9F60E94841280E090E894
:10401000ABE3B5E480939B0490939C04A0939D0430
:10402000B0939E0480939F049093A004A093A10456
:10403000B093A2041092B7041092B8041092B9047D
:104040001092BA0480E29EE4A0E0B0E08093B30452
:104050009093B404A093B504B093B6041092BB043B
:104060001092BC041092BD041092BE0480E090E057
:10407000A0EAB1E48093970490939804A0939904E4
:10408000B0939A044DEC5CEC6CEC7EE340939304AB
:1040900050939404609395047093960440E050E02C
:1040A00060EA70E440938F0450939004609391040D
:1040B0007093920410927B0410927C0410927D0401
:1040C00010927E0410927704109278041092790472
:1040D00010927A0410927304109274041092750472
:1040E000109276048093050290930602A093070233
:1040F000B09308021092090210920A0210920B0269
:1041000010920C0210920D0210920E0210920F02E9
:10411000109210028AE999E9A1EBB1E480934A0276
:1041200090934B02A0934C02B0934D0285E894EF1C
:10413000A0E1BEE38093520290935302A0935402F5
:10414000B093550280E190E7A9E5B4E4809346027C
:1041500090934702A0934802B09349020E94A51190
:1041600080E090E0A0E8BFE380930002909301021A
:10417000A0930202B09303021092C1041092C204F1
:104180001092C3041092C4041092C5041092C60485
:104190001092C7041092C8041092C9041092CA0465
:1041A0001092CB041092CC0480E090E0A8E1B3E43C
:1041B0008093320290933302A0933402B09335027D
:1041C0008093360290933702A0933802B09339025D
:1041D00080933A0290933B02A0933C02B0933D023D
:1041E000E1ECF5E08491882341F09091C00095FFC7
:1041F000FCCF8093C6003196F5CFEFE9F5E08491CE
:10420000882341F09091C00095FFFCCF8093C600B9
:104210003196F5CF8091C00085FFFCCF8AE0809376
:10422000C600E0960FB6F894DEBF0FBECDBFDF919B
:10423000CF911F910F91FF90EF90DF90CF90BF90A3
:10424000AF9008952F923F924F925F926F927F921C
:104250008F929F92AF92BF92CF92DF92EF92FF9296
:104260000F931F93CF93DF93CDB7DEB7A0970FB611
:10427000F894DEBF0FBECDBF6115710581059105B4
:1042800001F58091C00085FFFCCF80E38093C600DC
:10429000A0960FB6F894DEBF0FBECDBFDF91CF91D1
:1042A0001F910F91FF90EF90DF90CF90BF90AF9054
:1042B0009F908F907F906F905F904F903F902F9046
:1042C00008958E010F5F1F4F812C912C540118010E
:1042D000442E512C712C612CA30192010E948392D7
:1042E000750164018FEFC81AD80AE80AF80AF801C4
:1042F00061938F01B901CA016115710581059105AD
:10430000C9F4F101E80DF91D80818A30B0F4805DB7
:104310009091C00095FFFCCF8093C600F1E08F1A0A
:104320009108A108B1088FEF88169806A806B8066C
:1043300041F7AECF46015701CFCF895CE9CF97FF58
:104340000EC02091C00025FFFCCF2DE22093C600B7
:1043500090958095709561957F4F8F4F9F4F4AE064
:104360000C9422218F929F92AF92BF92CF92DF92B4
:10437000EF92FF92CF936B017C01B42E20E030E0EE
:10438000A9010E944E8F87FF0BC08091C00085FF5E
:10439000FCCF8DE28093C600F7FAF094F7F8F09422
:1043A000C0E060E070E080E09FE3CB1541F020E0EA
:1043B00030E040E251E40E94E193CF5FF6CFA701E5
:1043C00096010E94E7926B017C010E945A944B0176
:1043D0005C014AE00E942221CC2399F1E9EFF3E04D
:1043E0008191811127C0C501B4010E94538F9B01A7
:1043F000AC01C701B6010E94E692C15010F120E065
:1044000030E040E251E40E94928B4B015C010E943B
:1044100053946B01770FEE08FF08C701B6010E94A5
:104420009F21C701B6010E94558F9B01AC01C501B8
:10443000B401E1CF9091C00095FFFCCF8093C600FE
:10444000CFCFCF91FF90EF90DF90CF90BF90AF9004
:104450009F908F900895FC01CB01BA0124912223F3
:1044600041F03091C00035FFFCCF2093C60031965B
:10447000F5CF42E00C94B221BC0190E080E04AE02C
:104480000E9422218091C00085FFFCCF8DE08093A7
:10449000C6008091C00085FFFCCF8AE08093C600F3
:1044A00008954F925F926F927F92AF92BF92CF9298
:1044B000DF92EF92FF920F931F93CF93DF9324E04D
:1044C00030E041E050E0D901A15BBD4FFD016591B5
:1044D0007491861797070CF066C041505109440F3C
:1044E000551F440F551FEA01CF5ADD4FFE010591BC
:1044F0001491415B5D4FFA0165917491F901EF5A96
:10450000FD4FE590F490FE01C590D490FD01C5915A
:10451000D491FA01A590B490861B970BBC01990F1A
:10452000880B990B0E94558F2B013C01B7016C1928
:104530007D09072E000C880B990B0E94558F9B015B
:10454000AC01C301B2010E94928B6B017C01BE01E0
:104550006A197B09072E000C880B990B0E94558F56
:104560009B01AC01C701B6010E94E1936B017C0184
:10457000B801110F880B990B0E94558F9B01AC015C
:10458000C701B6010E94E792DF91CF911F910F9171
:10459000FF90EF90DF90CF90BF90AF907F906F90A3
:1045A0005F904F9008954F5F5F4F2C5F3F4F243FC8
:1045B000310509F088CFE1E4F3E065917491072EAD
:1045C000000C880B990B0E94558FDECF8091010A59
:1045D0009091020A0E9451226093F9097093FA099E
:1045E0008093FB099093FC098091FF099091000A48
:1045F0000E9410116093F5097093F6098093F709F2
:104600009093F8098FB7F8941092030A8FBF08951A
:104610004F925F926F927F928F929F92AF92BF92D2
:10462000CF92DF92EF92FF920F931F93CF93DF937E
:1046300000D01F921F92CDB7DEB78091030A882366
:1046400009F488C10E94E622C090F909D090FA09C5
:10465000E090FB09F090FC092091910A3091920AB8
:104660003A832983B901330F880B990B0E94558F28
:10467000A70196010E94E6924B015C0120E030E028
:1046800040E251E40E944795181654F481E080936B
:10469000F409812C912C9FE7A92E93E4B92ED8C060
:1046A00020E030E040E251ECC501B4010E944E8FA1
:1046B00087FD04C089819A81892B39F481E0809338
:1046C000F409812C912C5401C3C08091F4098823F2
:1046D00051F01092F0091092F1091092F209109223
:1046E000F3091092F40920914A0230914B02409153
:1046F0004C0250914D02C501B4010E94928B2B01D6
:104700003C012091F0093091F1094091F20950915A
:10471000F309C501B4010E94E7928B018D8399834F
:104720008090630A9090640AA090650AB090660A2F
:104730009401A5010E944E8F87FD14C080905F0AEE
:104740009090600AA090610AB090620A9401A5015D
:10475000B8018D8199810E94479518161CF0480177
:10476000AD80B980C401D5018093F0099093F1091F
:10477000A093F209B093F3092091520230915302B1
:104780004091540250915502B401C5010E94928B90
:1047900069837A838B839C832091EC093091ED09A6
:1047A0004091EE095091EF09C701B6010E94E692CF
:1047B00020914602309147024091480250914902AF
:1047C0000E94928B20ED3CEC4CE45DE30E94928BC6
:1047D0004B015C0123E333E343E75FE36091E809C6
:1047E0007091E9098091EA099091EB090E94928BFE
:1047F0009B01AC01C501B4010E94E7924B015C0131
:104800008092E8099092E909A092EA09B092EB0936
:1048100029813A814B815C81C301B2010E94E792F8
:10482000A50194010E94E6924B015C0120E030E07A
:10483000A9010E944E8F87FD44CF20E030E04FE772
:1048400053E4C501B4010E94479518160CF421CF1A
:10485000C092EC09D092ED09E092EE09F092EF09D6
:1048600060915D0A70915E0A072E000C880B990B0F
:104870000E94558F9B01AC01C701B6010E9447956C
:1048800018160CF07DC06091560270915702072EE9
:10489000000C880B990B0E94558F9B01AC01C7013E
:1048A000B6010E944E8F87FF6BC0C501B4010E9404
:1048B0005394759567956093140A0E94BD0D0091FD
:1048C000E4091091E5092091E6093091E709601BA0
:1048D000710B820B930B6838734181059105D0F100
:1048E0000E94BD0D6093E4097093E5098093E60989
:1048F0009093E709C090F509D090F609E090F70988
:10490000F090F80920E030E040EA50E4C701B60139
:104910000E9447951816DCF520E030E046E153E4AC
:10492000C701B6010E944E8F87FF31C06091FD091B
:104930007091FE09072E000C880B990B0E94558F71
:104940009B01AC01C701B6010E94479587FD1BC0C2
:104950001092120A0F900F900F900F900F90DF910E
:10496000CF911F910F91FF90EF90DF90CF90BF906C
:10497000AF909F908F907F906F905F904F90089531
:104980001092140A9ACF8FE78093120AE3CF109205
:10499000120A9FB7F894809102018F7D80930201E3
:1049A0009FBFD8CF9091970A8091960A981729F0C7
:1049B0000E9408230E94BF1CF5CF08950E94D224B4
:1049C0005F9AEEE8FAE010828A9A11829FB7F89413
:1049D000A8E0B1E08C9181608C939FBF1282129A03
:1049E00008958F929F92AF92BF92CF92DF92EF92F3
:1049F000FF920F931F93CF93DF9300D01F92CDB7F9
:104A0000DEB7FC018381813011F080E060C08181DC
:104A100081FFFBCF81899289A389B489892B8A2B55
:104A20008B2B09F46EC07F0140E050E0BA01CF014A
:104A30000E94AF18882349F3F701C18CD28C858876
:104A40009688A788B08C82E090E0A0E0B0E0F60104
:104A500080839183A283B3839E012F5F3F4FB50173
:104A6000A401C6010E947217882379F200E010E0C9
:104A70009801B501A401C6010E94E016882329F21D
:104A800089809A80AB80BC80F6018789803181F56E
:104A9000F8EF8F16FFEF9F06A104B104E8F2F701CB
:104AA000158A168A178A108E118A128A138A148A16
:104AB000818180688183C7010E94581A882309F484
:104AC000A4CF40E050E0BA01C7010E94AF180F9098
:104AD0000F900F900F90DF91CF911F910F91FF904A
:104AE000EF90DF90CF90BF90AF909F908F90089500
:104AF00088EF88168FEF9806A8068FE0B80678F63C
:104B0000ABCF81E0E4CF8091330B9091340B909345
:104B1000320B8093310BEAEEF8E08491882341F068
:104B20009091C00095FFFCCF8093C6003196F5CFE1
:104B300060919F0A7091A00A8091A10A9091A20AA7
:104B40006F5F7F4F8F4F9F4F0E949F218091C000CA
:104B500085FFFCCF8AE08093C6000C94181FFC01EF
:104B6000CB01BA012491222341F03091C00035FFDE
:104B7000FCCF2093C6003196F5CF4AE00C94222159
:104B8000CF93DF93C1ECD5E0FE018491882341F0FF
:104B90009091C00095FFFCCF8093C6003196F5CF71
:104BA000E5E7F5E08491882341F09091C00095FFFE
:104BB000FCCF8093C6003196F5CF8091C00085FF71
:104BC000FCCF8AE08093C600FE018491E1ECF5E021
:104BD000882349F09091C00095FFFCCF8093C600D8
:104BE00031968491F5CF4091730F5091740F60917D
:104BF000750F7091760F8DE695E00E942B22409103
:104C0000770F5091780F6091790F70917A0F8AE643
:104C100095E00E942B2240917B0F50917C0F609178
:104C20007D0F70917E0F87E695E00E942B224091C8
:104C30007F0F5091800F6091810F7091820F84E6F9
:104C400095E00E942B228091C00085FFFCCF8AE076
:104C50008093C600FE018491E1ECF5E0882349F0E1
:104C60009091C00095FFFCCF8093C600319684914F
:104C7000F5CFEAE4F5E08491882341F09091C000FB
:104C800095FFFCCF8093C6003196F5CF8091C00090
:104C900085FFFCCF8AE08093C600FE018491E1ECA1
:104CA000F5E0882349F09091C00095FFFCCF8093F8
:104CB000C60031968491F5CF4091A3045091A4048D
:104CC0006091A5047091A60481E495E00E942B22D6
:104CD0004091A7045091A8046091A9047091AA047E
:104CE0008EE395E00E942B224091AB045091AC04DE
:104CF0006091AD047091AE048BE395E00E942B228D
:104D00004091AF045091B0046091B1047091B2042D
:104D100088E395E00E942B228091C00085FFFCCFA4
:104D20008AE08093C600FE018491E1ECF5E08823DF
:104D300049F09091C00095FFFCCF8093C60031965A
:104D40008491F5CFEAE1F5E08491882341F09091D8
:104D5000C00095FFFCCF8093C6003196F5CF8091BF
:104D6000C00085FFFCCF8AE08093C600FE018491DD
:104D7000E1ECF5E0882349F09091C00095FFFCCF6D
:104D80008093C60031968491F5CF4091DD04509117
:104D9000DE046091DF047091E00481E195E00E94FF
:104DA000AF254091E1045091E2046091E3047091D9
:104DB000E4048EE095E00E94AF254091E504509117
:104DC000E6046091E7047091E8048BE095E00E94AE
:104DD000AF254091E9045091EA046091EB04709191
:104DE000EC0488E095E00E94AF258091C00085FF2B
:104DF000FCCF8AE08093C600FE018491E1ECF5E0EF
:104E0000882349F09091C00095FFFCCF8093C600A5
:104E100031968491F5CFE3EDF4E08491882341F05D
:104E20009091C00095FFFCCF8093C6003196F5CFDE
:104E30008091C00085FFFCCF8AE08093C600FE0110
:104E40008491E1ECF5E0882349F09091C00095FF52
:104E5000FCCF8093C60031968491F5CF40919B049E
:104E600050919C0460919D0470919E048AEC94E0A2
:104E70000E942B2240919F045091A0046091A104B4
:104E80007091A20487EC94E00E942B228091C000D4
:104E900085FFFCCF8AE08093C600FE018491E1EC9F
:104EA000F5E0882349F09091C00095FFFCCF8093F6
:104EB000C60031968491F5CFE4E1F4E08491882333
:104EC00041F09091C00095FFFCCF8093C6003196D1
:104ED000F5CF8091C00085FFFCCF8AE08093C600AB
:104EE000FE018491E1ECF5E0882349F09091C00047
:104EF00095FFFCCF8093C60031968491F5CF409109
:104F0000B7045091B8046091B9047091BA048BE071
:104F100094E00E942B224091BB045091BC0460910C
:104F2000BD047091BE0488E094E00E942B22409161
:104F3000B3045091B4046091B5047091B60485E057
:104F400094E00E94AF25409197045091980460919D
:104F5000990470919A0482E094E00E942B2240917F
:104F600093045091940460919504709196048FEF8E
:104F700093E00E942B2240918F0450919004609105
:104F80009104709192048CEF93E00E942B22809107
:104F9000C00085FFFCCF8AE08093C600FE018491AB
:104FA000E1ECF5E0882349F09091C00095FFFCCF3B
:104FB0008093C60031968491F5CFEAEEF3E08491B8
:104FC000882341F09091C00095FFFCCF8093C600EC
:104FD0003196F5CF8091C00085FFFCCF8AE08093A9
:104FE000C600FE018491E1ECF5E0882349F0909140
:104FF000C00095FFFCCF8093C60031968491F5CF19
:10500000409173045091740460917504709176041A
:1050100081EE93E00E942B22409177045091780416
:105020006091790470917A048EED93E00E942B22B6
:1050300040917B0450917C0460917D0470917E04CA
:105040008BED93E00E942B228091C00085FFFCCF66
:105050008AE08093C600FE018491E1ECF5E08823AC
:1050600049F09091C00095FFFCCF8093C600319627
:105070008491F5CFEDECF3E08491882341F0909199
:10508000C00095FFFCCF8093C6003196F5CF80918C
:10509000C00085FFFCCF8AE08093C600FE018491AA
:1050A000E1ECF5E0882349F09091C00095FFFCCF3A
:1050B0008093C60031968491F5CF40914A02509179
:1050C0004B0260914C0270914D0283EC93E00E9480
:1050D0002B222DEB37E346E05EE3609152027091A4
:1050E000530280915402909155020E94E193AB01CA
:1050F000BC0180EC93E00E942B222DEB37E346E0CD
:105100005EE360914602709147028091480290915F
:1051100049020E94928BAB01BC018DEB93E00E948F
:105120002B228091C00085FFFCCF8AE08093C600CF
:10513000FE018491E1ECF5E0882349F09091C000F4
:1051400095FFFCCF8093C60031968491F5CFEAEAB3
:10515000F3E08491882341F09091C00095FFFCCF4B
:105160008093C6003196F5CF8091C00085FFFCCFBB
:105170008AE08093C600FE018491E1ECF5E088238B
:1051800049F09091C00095FFFCCF8093C600319606
:105190008491F5CF4091C1045091C2046091C30441
:1051A0007091C40481EA93E00E942B224091C504CF
:1051B0005091C6046091C7047091C8048EE993E0D1
:1051C0000E942B224091C9045091CA046091CB04E3
:1051D0007091CC048BE993E00E942B228091C00057
:1051E00085FFFCCF8AE08093C600FE018491E1EC4C
:1051F000F5E0882349F09091C00095FFFCCF8093A3
:10520000C60031968491F5CFE8E8F3E084918823D5
:1052100041F09091C00095FFFCCF8093C60031967D
:10522000F5CF8091C00085FFFCCF8AE08093C60057
:10523000FE018491E1ECF5E0882349F09091C000F3
:1052400095FFFCCF8093C60031968491F5CF4091B5
:1052500032025091330260913402709135028FE72F
:1052600093E00E942B2240913602509137026091C8
:105270003802709139028CE793E00E942B22409112
:105280003A0250913B0260913C0270913D0289E7E5
:1052900093E00E942B228091C00085FFFCCF8AE022
:1052A0008093C600FE018491E1ECF5E0882349F08B
:1052B0009091C00095FFFCCF8093C60031968491F9
:1052C000F5CFE2E6F3E08491882341F09091C000AD
:1052D00095FFFCCF8093C6003196F5CF8091C0003A
:1052E00085FFFCCF8AE08093C600FE01C491E1EC0B
:1052F000F5E0CC2349F08091C00085FFFCCFC0933E
:10530000C6003196C491F5CF409105025091060236
:10531000609107027091080289E593E00E942B22B8
:105320004091090250910A0260910B0270910C02A7
:1053300086E593E00E942B2240910D0250910E02CF
:1053400060910F027091100283E593E00E942B227E
:105350008091C00085FFFCCF8AE08093C600DF917A
:10536000CF910895EF92FF920F931F93CF93DF9306
:10537000CDB7DEB72C970FB6F894DEBF0FBECDBF0A
:1053800069837A838B839C832D833E834F835887E5
:10539000E986FA860B871C87CE0109969F938F9327
:1053A00004979F938F9304979F938F938DB79EB786
:1053B00084970FB6F8949EBF0FBE8DBFADB7BEB732
:1053C000119684E2EDE5F2E001900D928A95E1F705
:1053D0000E940D100FB6F894DEBF0FBECDBF83E75D
:1053E000E82E8FE0F82E29813A814B815C81F7010C
:1053F00060817181828193810E94928B0E94FB95D2
:1054000003E61FE0D8016D937D938D939C931397D2
:105410002D813E814F815885F70164817581868198
:1054200097810E94928B0E94FB95D80114966D93F0
:105430007D938D939C93179729853A854B855C8541
:10544000F70160857185828593850E94928B0E9409
:10545000FB95D80118966D937D938D939C931B9724
:10546000F701248535854685578560914B0F7091EE
:105470004C0F80914D0F90914E0F0E94928B0E9485
:10548000FB95D8011C966D937D938D939C931F97EC
:105490008FB7F894F8014081518162817381EFE206
:1054A000FFE0408351836283738314964D915D9135
:1054B0006D917C9117974483558366837783189603
:1054C0004D915D916D917C911B97408751876287CB
:1054D00073871C964D915D916D917C911F974487C8
:1054E0005587668777878FBF10925F0F1092600F86
:1054F0001092610F1092620FEFE4FFE010821182B0
:1055000012821382148215821682178210861186E7
:105510001286138614861586168617862C960FB665
:10552000F894DEBF0FBECDBFDF91CF911F910F91D9
:10553000FF90EF900895682F880F770B2091450B0F
:105540003091460B40E6429FC001439F900D1124CD
:10555000855A924F0E94F0969C019093A80A8093DE
:10556000A70A81E0232B09F480E008958091A70A1F
:105570009091A80A70E060E001960C94508C0F9313
:105580001F93CF938C018091930A8093660484E5E6
:105590000E949B2AC82F811106C0C0E08C2FCF919A
:1055A0001F910F9108950E94B62A0E945A94609309
:1055B0006604662391F3E1E7F8E18491882341F0E2
:1055C0009091C00095FFFCCF8093C6003196F5CF37
:1055D00009361105F1F00D36110579F0083611057F
:1055E00021F5EAE1F3E081918823F9F09091C00080
:1055F00095FFFCCF8093C600F6CFECEEF2E08191F0
:10560000882399F09091C00095FFFCCF8093C6004D
:10561000F6CFE3E0F3E08191882339F09091C00068
:1056200095FFFCCF8093C600F6CF809166049091E1
:10563000C00095FFFCCF8093C6008091C00085FF1D
:10564000FCCF8AE08093C600A9CF8F929F92AF9241
:10565000BF92CF92DF92EF92FF920F931F93CF935F
:10566000DF9386EBC82E82E0D82E9FE3E92E9FE0E1
:10567000F92E0FE714E0D0E0C0E0F60181916F0150
:105680000E949B2A882309F44FC00E94B62A4B012E
:105690005C01FE01EA5BFB4F6081611102C0609119
:1056A000450470E090E080E00E94558FF701208172
:1056B0003181428153810E94928BA50194010E9405
:1056C000E792F80160837183828393832196F4E0EB
:1056D000EF0EF11C0C5F1F4FC430D10571F686E44C
:1056E0000E949B2A882399F00E94B62A6B017C01B4
:1056F00020E030E0A9010E944795181644F4C092BA
:105700002C02D0922D02E0922E02F0922F02DF9115
:10571000CF911F910F91FF90EF90DF90CF90BF90AE
:10572000AF909F908F900895F70180819181A28121
:10573000B381F80180839183A283B383C7CF0E9492
:10574000252B89E40E949B2A8823D1F00E94B62A47
:1057500060934A0470934B0480934C0490934D04DF
:105760008AE40E949B2A8823A1F00E94B62A6093B3
:105770004E0470934F048093500490935104089505
:1057800010924A0410924B0410924C0410924D0453
:10579000E7CF10924E0410924F04109250041092D2
:1057A000510408958091A70A9091A80A4AE050E018
:1057B00070E060E001960C94AE8D85ED8093BC00A6
:1057C0008091070F9091080FA091090FB0910A0FD7
:1057D0000796A11DB11D23E0B695A79597958795CE
:1057E0002A95D1F72091BC0024FD03C01092050F2B
:1057F00008954091070F5091080F6091090F709123
:105800000A0F452B462B472B69F30097A105B105DD
:1058100041F02AE22A95F1F700C00197A109B109E8
:10582000E1CF8091060F0C94440E4F925F926F92DD
:105830007F928F929F92AF92BF92CF92DF92EF9220
:10584000FF92CF93DF9300D000D0CDB7DEB79E8319
:105850008D83DC014D905D906D907C901397149634
:105860008D909D90AD90BC90179718968D919D91BD
:105870000D90BC91A02D89839A83AB83BC83A30137
:105880009201C301B2010E94928B6B017C01A501C0
:105890009401C501B4010E94928B9B01AC01C70128
:1058A000B6010E94E7926B017C0129813A814B810C
:1058B0005C81CA01B9010E94928B9B01AC01C701B6
:1058C000B6010E94E7920E943C966B017C01AC01FC
:1058D0009B01C301B2010E94E193ED81FE816083CF
:1058E000718382839383A7019601C501B4010E944D
:1058F000E193AD81BE8114966D937D938D939C93BE
:105900001797A701960169817A818B819C810E94FA
:10591000E193ED81FE816087718782879387269668
:105920000FB6F894DEBF0FBECDBFDF91CF91FF90D1
:10593000EF90DF90CF90BF90AF909F908F907F902F
:105940006F905F904F9008954F925F926F927F9209
:10595000AF92BF92CF92DF92EF92FF920F931F937D
:10596000CF93DF938C01EB01FC0146A057A060A40C
:1059700071A4AEA0BFA0C8A4D9A49501A601C3017B
:10598000B2010E944E8F87FF3DC0A3019201C30167
:10599000B2010E94928B2B013C01F80162A973A90C
:1059A00084A995A990589B01AC010E94E792F80147
:1059B00026A537A540A951A90E94928B9B01AC0155
:1059C000C301B2010E94E6920E943C967B018C01C9
:1059D0009B01AC01B501C6010E944E8F87FF02C03A
:1059E000750186019701A801B501C6010E944E8F7D
:1059F000882341F0C701D8018EA39FA3A8A7B9A708
:105A000081E08EABDF91CF911F910F91FF90EF90CE
:105A1000DF90CF90BF90AF907F906F905F904F904E
:105A200008954F925F926F927F928F929F92AF9262
:105A3000BF92CF92DF92EF92FF920F931F93CF937B
:105A4000DF93CDB7DEB76A970FB6F894DEBF0FBE0F
:105A5000CDBF9A8F898F4A015B013901DC01D8964D
:105A60006D917D918D919C91DB970E94538F6B017D
:105A70007C01A50194010E94928B0E94C5930E9413
:105A80005A944B015C01A3019801C701B6010E9421
:105A9000928B0E94C5930E945A948D829E82AF82FF
:105AA000B8862D813E814F815885283731054105C3
:105AB000510540F428E730E040E050E02D833E837C
:105AC0004F83588769837A838B839C8389819A81EA
:105AD000AB81BC8188379105A105B10540F428E769
